{
  "_format": "hh-sol-artifact-1",
  "contractName": "JobMarketplace",
  "sourceName": "contracts/JobMarketplace.sol",
  "abi": [
    {
      "anonymous": false,
      "inputs": [
        {
          "indexed": false,
          "internalType": "uint256",
          "name": "jobId",
          "type": "uint256"
        }
      ],
      "name": "JobCompleted",
      "type": "event"
    },
    {
      "anonymous": false,
      "inputs": [
        {
          "indexed": false,
          "internalType": "uint256",
          "name": "jobId",
          "type": "uint256"
        },
        {
          "indexed": false,
          "internalType": "string",
          "name": "title",
          "type": "string"
        },
        {
          "indexed": false,
          "internalType": "uint256",
          "name": "payment",
          "type": "uint256"
        },
        {
          "indexed": false,
          "internalType": "address",
          "name": "client",
          "type": "address"
        }
      ],
      "name": "JobPosted",
      "type": "event"
    },
    {
      "anonymous": false,
      "inputs": [
        {
          "indexed": false,
          "internalType": "uint256",
          "name": "jobId",
          "type": "uint256"
        },
        {
          "indexed": false,
          "internalType": "address",
          "name": "freelancer",
          "type": "address"
        }
      ],
      "name": "PaymentReleased",
      "type": "event"
    },
    {
      "inputs": [
        {
          "internalType": "uint256",
          "name": "_jobId",
          "type": "uint256"
        }
      ],
      "name": "acceptJob",
      "outputs": [],
      "stateMutability": "nonpayable",
      "type": "function"
    },
    {
      "inputs": [
        {
          "internalType": "uint256",
          "name": "_jobId",
          "type": "uint256"
        }
      ],
      "name": "completeJob",
      "outputs": [],
      "stateMutability": "nonpayable",
      "type": "function"
    },
    {
      "inputs": [],
      "name": "jobCount",
      "outputs": [
        {
          "internalType": "uint256",
          "name": "",
          "type": "uint256"
        }
      ],
      "stateMutability": "view",
      "type": "function"
    },
    {
      "inputs": [
        {
          "internalType": "uint256",
          "name": "",
          "type": "uint256"
        }
      ],
      "name": "jobs",
      "outputs": [
        {
          "internalType": "uint256",
          "name": "id",
          "type": "uint256"
        },
        {
          "internalType": "string",
          "name": "title",
          "type": "string"
        },
        {
          "internalType": "string",
          "name": "description",
          "type": "string"
        },
        {
          "internalType": "uint256",
          "name": "payment",
          "type": "uint256"
        },
        {
          "internalType": "address payable",
          "name": "freelancer",
          "type": "address"
        },
        {
          "internalType": "address",
          "name": "client",
          "type": "address"
        },
        {
          "internalType": "bool",
          "name": "isCompleted",
          "type": "bool"
        },
        {
          "internalType": "bool",
          "name": "isPaid",
          "type": "bool"
        }
      ],
      "stateMutability": "view",
      "type": "function"
    },
    {
      "inputs": [
        {
          "internalType": "string",
          "name": "_title",
          "type": "string"
        },
        {
          "internalType": "string",
          "name": "_description",
          "type": "string"
        }
      ],
      "name": "postJob",
      "outputs": [],
      "stateMutability": "payable",
      "type": "function"
    },
    {
      "inputs": [
        {
          "internalType": "uint256",
          "name": "_jobId",
          "type": "uint256"
        }
      ],
      "name": "releasePayment",
      "outputs": [],
      "stateMutability": "nonpayable",
      "type": "function"
    },
    {
      "inputs": [
        {
          "internalType": "string",
          "name": "_title",
          "type": "string"
        }
      ],
      "name": "searchJobByTitle",
      "outputs": [
        {
          "internalType": "uint256[]",
          "name": "",
          "type": "uint256[]"
        }
      ],
      "stateMutability": "view",
      "type": "function"
    }
  ],
  "bytecode": "0x608060405234801561001057600080fd5b5061188b806100206000396000f3fe6080604052600436106100705760003560e01c8063797db6351161004e578063797db6351461010d57806388685cd91461014a578063a01e567614610173578063a1c0d32f1461018f57610070565b8063180aedf3146100755780634c5d8a0f146100b957806363b2f3c9146100e4575b600080fd5b34801561008157600080fd5b5061009c60048036038101906100979190610f09565b6101b8565b6040516100b09897969594939291906114a5565b60405180910390f35b3480156100c557600080fd5b506100ce61036a565b6040516100db9190611461565b60405180910390f35b3480156100f057600080fd5b5061010b60048036038101906101069190610f09565b610370565b005b34801561011957600080fd5b50610134600480360381019061012f9190610e5c565b6104f5565b604051610141919061133f565b60405180910390f35b34801561015657600080fd5b50610171600480360381019061016c9190610f09565b610771565b005b61018d60048036038101906101889190610e9d565b6109aa565b005b34801561019b57600080fd5b506101b660048036038101906101b19190610f09565b610be9565b005b60016020528060005260406000206000915090508060000154908060010180546101e190611725565b80601f016020809104026020016040519081016040528092919081815260200182805461020d90611725565b801561025a5780601f1061022f5761010080835404028352916020019161025a565b820191906000526020600020905b81548152906001019060200180831161023d57829003601f168201915b50505050509080600201805461026f90611725565b80601f016020809104026020016040519081016040528092919081815260200182805461029b90611725565b80156102e85780601f106102bd576101008083540402835291602001916102e8565b820191906000526020600020905b8154815290600101906020018083116102cb57829003601f168201915b5050505050908060030154908060040160009054906101000a900473ffffffffffffffffffffffffffffffffffffffff16908060050160009054906101000a900473ffffffffffffffffffffffffffffffffffffffff16908060050160149054906101000a900460ff16908060050160159054906101000a900460ff16905088565b60005481565b6000600160008381526020019081526020016000209050600073ffffffffffffffffffffffffffffffffffffffff168160050160009054906101000a900473ffffffffffffffffffffffffffffffffffffffff1673ffffffffffffffffffffffffffffffffffffffff16141561041b576040517f08c379a0000000000000000000000000000000000000000000000000000000008152600401610412906113e1565b60405180910390fd5b600073ffffffffffffffffffffffffffffffffffffffff168160040160009054906101000a900473ffffffffffffffffffffffffffffffffffffffff1673ffffffffffffffffffffffffffffffffffffffff16146104ae576040517f08c379a00000000000000000000000000000000000000000000000000000000081526004016104a5906113c1565b60405180910390fd5b338160040160006101000a81548173ffffffffffffffffffffffffffffffffffffffff021916908373ffffffffffffffffffffffffffffffffffffffff1602179055505050565b60606000805467ffffffffffffffff81111561053a577f4e487b7100000000000000000000000000000000000000000000000000000000600052604160045260246000fd5b6040519080825280602002602001820160405280156105685781602001602082028036833780820191505090505b509050600080600190505b600054811161064d578460405160200161058d9190611311565b60405160208183030381529060405280519060200120600160008381526020019081526020016000206001016040516020016105c99190611328565b60405160208183030381529060405280519060200120141561063a578083838151811061061f577f4e487b7100000000000000000000000000000000000000000000000000000000600052603260045260246000fd5b602002602001018181525050818061063690611757565b9250505b808061064590611757565b915050610573565b5060008167ffffffffffffffff811115610690577f4e487b7100000000000000000000000000000000000000000000000000000000600052604160045260246000fd5b6040519080825280602002602001820160405280156106be5781602001602082028036833780820191505090505b50905060005b8281101561076557838181518110610705577f4e487b7100000000000000000000000000000000000000000000000000000000600052603260045260246000fd5b6020026020010151828281518110610746577f4e487b7100000000000000000000000000000000000000000000000000000000600052603260045260246000fd5b602002602001018181525050808061075d90611757565b9150506106c4565b50809350505050919050565b60006001600083815260200190815260200160002090508060050160009054906101000a900473ffffffffffffffffffffffffffffffffffffffff1673ffffffffffffffffffffffffffffffffffffffff163373ffffffffffffffffffffffffffffffffffffffff161461081a576040517f08c379a000000000000000000000000000000000000000000000000000000000815260040161081190611441565b60405180910390fd5b8060050160149054906101000a900460ff1661086b576040517f08c379a000000000000000000000000000000000000000000000000000000000815260040161086290611361565b60405180910390fd5b8060050160159054906101000a900460ff16156108bd576040517f08c379a00000000000000000000000000000000000000000000000000000000081526004016108b490611381565b60405180910390fd5b60018160050160156101000a81548160ff0219169083151502179055508060040160009054906101000a900473ffffffffffffffffffffffffffffffffffffffff1673ffffffffffffffffffffffffffffffffffffffff166108fc82600301549081150290604051600060405180830381858888f19350505050158015610948573d6000803e3d6000fd5b507f4156924bd7e340b19303af17bf5323d66fae5dc16f350319092e0839c8543683828260040160009054906101000a900473ffffffffffffffffffffffffffffffffffffffff1660405161099e92919061147c565b60405180910390a15050565b600034116109ed576040517f08c379a00000000000000000000000000000000000000000000000000000000081526004016109e4906113a1565b60405180910390fd5b6000808154809291906109ff90611757565b91905055506040518061010001604052806000548152602001838152602001828152602001348152602001600073ffffffffffffffffffffffffffffffffffffffff1681526020013373ffffffffffffffffffffffffffffffffffffffff168152602001600015158152602001600015158152506001600080548152602001908152602001600020600082015181600001556020820151816001019080519060200190610aad929190610d3c565b506040820151816002019080519060200190610aca929190610d3c565b506060820151816003015560808201518160040160006101000a81548173ffffffffffffffffffffffffffffffffffffffff021916908373ffffffffffffffffffffffffffffffffffffffff16021790555060a08201518160050160006101000a81548173ffffffffffffffffffffffffffffffffffffffff021916908373ffffffffffffffffffffffffffffffffffffffff16021790555060c08201518160050160146101000a81548160ff02191690831515021790555060e08201518160050160156101000a81548160ff0219169083151502179055509050507fdae22a6a62e5082f8a33b32bca43874d8b3379b880472eea210673a004ad47d5600054833433604051610bdd9493929190611531565b60405180910390a15050565b60006001600083815260200190815260200160002090508060040160009054906101000a900473ffffffffffffffffffffffffffffffffffffffff1673ffffffffffffffffffffffffffffffffffffffff163373ffffffffffffffffffffffffffffffffffffffff1614610c92576040517f08c379a0000000000000000000000000000000000000000000000000000000008152600401610c8990611401565b60405180910390fd5b8060050160149054906101000a900460ff1615610ce4576040517f08c379a0000000000000000000000000000000000000000000000000000000008152600401610cdb90611421565b60405180910390fd5b60018160050160146101000a81548160ff0219169083151502179055507f02244c8529cb95e213ee542e76e7776342b3dabd10203d01472bbf4441be892982604051610d309190611461565b60405180910390a15050565b828054610d4890611725565b90600052602060002090601f016020900481019282610d6a5760008555610db1565b82601f10610d8357805160ff1916838001178555610db1565b82800160010185558215610db1579182015b82811115610db0578251825591602001919060010190610d95565b5b509050610dbe9190610dc2565b5090565b5b80821115610ddb576000816000905550600101610dc3565b5090565b6000610df2610ded846115ae565b61157d565b905082815260208101848484011115610e0a57600080fd5b610e158482856116e3565b509392505050565b600082601f830112610e2e57600080fd5b8135610e3e848260208601610ddf565b91505092915050565b600081359050610e568161183e565b92915050565b600060208284031215610e6e57600080fd5b600082013567ffffffffffffffff811115610e8857600080fd5b610e9484828501610e1d565b91505092915050565b60008060408385031215610eb057600080fd5b600083013567ffffffffffffffff811115610eca57600080fd5b610ed685828601610e1d565b925050602083013567ffffffffffffffff811115610ef357600080fd5b610eff85828601610e1d565b9150509250929050565b600060208284031215610f1b57600080fd5b6000610f2984828501610e47565b91505092915050565b6000610f3e83836112f3565b60208301905092915050565b610f53816116ad565b82525050565b610f6281611665565b82525050565b610f7181611653565b82525050565b6000610f8282611603565b610f8c8185611626565b9350610f97836115de565b8060005b83811015610fc8578151610faf8882610f32565b9750610fba83611619565b925050600181019050610f9b565b5085935050505092915050565b610fde81611677565b82525050565b6000610fef8261160e565b610ff98185611637565b93506110098185602086016116f2565b6110128161182d565b840191505092915050565b60006110288261160e565b6110328185611648565b93506110428185602086016116f2565b80840191505092915050565b6000815461105b81611725565b6110658186611648565b945060018216600081146110805760018114611091576110c4565b60ff198316865281860193506110c4565b61109a856115ee565b60005b838110156110bc5781548189015260018201915060208101905061109d565b838801955050505b50505092915050565b60006110da601583611637565b91507f4a6f62206e6f7420636f6d706c657465642079657400000000000000000000006000830152602082019050919050565b600061111a601883611637565b91507f5061796d656e7420616c72656164792072656c656173656400000000000000006000830152602082019050919050565b600061115a601a83611637565b91507f5061796d656e742073686f756c6420626520696e2045746865720000000000006000830152602082019050919050565b600061119a601183611637565b91507f4a6f6220616c72656164792074616b656e0000000000000000000000000000006000830152602082019050919050565b60006111da601283611637565b91507f4a6f6220646f6573206e6f7420657869737400000000000000000000000000006000830152602082019050919050565b600061121a602583611637565b91507f4f6e6c7920667265656c616e6365722063616e20636f6d706c6574652074686960008301527f73206a6f620000000000000000000000000000000000000000000000000000006020830152604082019050919050565b6000611280601583611637565b91507f4a6f6220616c726561647920636f6d706c6574656400000000000000000000006000830152602082019050919050565b60006112c0601f83611637565b91507f4f6e6c7920636c69656e742063616e2072656c65617365207061796d656e74006000830152602082019050919050565b6112fc816116a3565b82525050565b61130b816116a3565b82525050565b600061131d828461101d565b915081905092915050565b6000611334828461104e565b915081905092915050565b600060208201905081810360008301526113598184610f77565b905092915050565b6000602082019050818103600083015261137a816110cd565b9050919050565b6000602082019050818103600083015261139a8161110d565b9050919050565b600060208201905081810360008301526113ba8161114d565b9050919050565b600060208201905081810360008301526113da8161118d565b9050919050565b600060208201905081810360008301526113fa816111cd565b9050919050565b6000602082019050818103600083015261141a8161120d565b9050919050565b6000602082019050818103600083015261143a81611273565b9050919050565b6000602082019050818103600083015261145a816112b3565b9050919050565b60006020820190506114766000830184611302565b92915050565b60006040820190506114916000830185611302565b61149e6020830184610f4a565b9392505050565b6000610100820190506114bb600083018b611302565b81810360208301526114cd818a610fe4565b905081810360408301526114e18189610fe4565b90506114f06060830188611302565b6114fd6080830187610f59565b61150a60a0830186610f68565b61151760c0830185610fd5565b61152460e0830184610fd5565b9998505050505050505050565b60006080820190506115466000830187611302565b81810360208301526115588186610fe4565b90506115676040830185611302565b6115746060830184610f68565b95945050505050565b6000604051905081810181811067ffffffffffffffff821117156115a4576115a36117fe565b5b8060405250919050565b600067ffffffffffffffff8211156115c9576115c86117fe565b5b601f19601f8301169050602081019050919050565b6000819050602082019050919050565b60008190508160005260206000209050919050565b600081519050919050565b600081519050919050565b6000602082019050919050565b600082825260208201905092915050565b600082825260208201905092915050565b600081905092915050565b600061165e82611683565b9050919050565b600061167082611683565b9050919050565b60008115159050919050565b600073ffffffffffffffffffffffffffffffffffffffff82169050919050565b6000819050919050565b60006116b8826116bf565b9050919050565b60006116ca826116d1565b9050919050565b60006116dc82611683565b9050919050565b82818337600083830152505050565b60005b838110156117105780820151818401526020810190506116f5565b8381111561171f576000848401525b50505050565b6000600282049050600182168061173d57607f821691505b60208210811415611751576117506117cf565b5b50919050565b6000611762826116a3565b91507fffffffffffffffffffffffffffffffffffffffffffffffffffffffffffffffff821415611795576117946117a0565b5b600182019050919050565b7f4e487b7100000000000000000000000000000000000000000000000000000000600052601160045260246000fd5b7f4e487b7100000000000000000000000000000000000000000000000000000000600052602260045260246000fd5b7f4e487b7100000000000000000000000000000000000000000000000000000000600052604160045260246000fd5b6000601f19601f8301169050919050565b611847816116a3565b811461185257600080fd5b5056fea2646970667358221220c83d95d79dd6fc7bf424d968bb27d562b37be5505147c2224bc76ac608048fb964736f6c63430008000033",
  "linkReferences": {},
  "deployedLinkReferences": {}
}